{
  "_format": "hh-sol-artifact-1",
  "contractName": "EtherToERC20Swappper",
  "sourceName": "contracts/ERC20Swapper.sol",
  "abi": [
    {
      "inputs": [],
      "name": "EtherToERC20Swappper__InnsufficientAmount",
      "type": "error"
    },
    {
      "inputs": [],
      "name": "EtherToErc20Swapper__EthNotSent",
      "type": "error"
    },
    {
      "inputs": [
        {
          "internalType": "address",
          "name": "token",
          "type": "address"
        },
        {
          "internalType": "uint256",
          "name": "minAmount",
          "type": "uint256"
        }
      ],
      "name": "swapEtherToToken",
      "outputs": [
        {
          "internalType": "uint256",
          "name": "",
          "type": "uint256"
        }
      ],
      "stateMutability": "payable",
      "type": "function"
    }
  ],
  "bytecode": "0x608060405234801561001057600080fd5b50610409806100206000396000f3fe60806040526004361061001e5760003560e01c80637a2a045614610023575b600080fd5b61003d6004803603810190610038919061026f565b610053565b60405161004a91906102be565b60405180910390f35b60008034101561008f576040517f91f547d700000000000000000000000000000000000000000000000000000000815260040160405180910390fd5b600083905060003490508173ffffffffffffffffffffffffffffffffffffffff166370a08231306040518263ffffffff1660e01b81526004016100d291906102e8565b602060405180830381865afa1580156100ef573d6000803e3d6000fd5b505050506040513d601f19601f820116820180604052508101906101139190610318565b81101561014c576040517f75d3822200000000000000000000000000000000000000000000000000000000815260040160405180910390fd5b8173ffffffffffffffffffffffffffffffffffffffff1663a9059cbb33836040518363ffffffff1660e01b8152600401610187929190610345565b6020604051808303816000875af11580156101a6573d6000803e3d6000fd5b505050506040513d601f19601f820116820180604052508101906101ca91906103a6565b50809250505092915050565b600080fd5b600073ffffffffffffffffffffffffffffffffffffffff82169050919050565b6000610206826101db565b9050919050565b610216816101fb565b811461022157600080fd5b50565b6000813590506102338161020d565b92915050565b6000819050919050565b61024c81610239565b811461025757600080fd5b50565b60008135905061026981610243565b92915050565b60008060408385031215610286576102856101d6565b5b600061029485828601610224565b92505060206102a58582860161025a565b9150509250929050565b6102b881610239565b82525050565b60006020820190506102d360008301846102af565b92915050565b6102e2816101fb565b82525050565b60006020820190506102fd60008301846102d9565b92915050565b60008151905061031281610243565b92915050565b60006020828403121561032e5761032d6101d6565b5b600061033c84828501610303565b91505092915050565b600060408201905061035a60008301856102d9565b61036760208301846102af565b9392505050565b60008115159050919050565b6103838161036e565b811461038e57600080fd5b50565b6000815190506103a08161037a565b92915050565b6000602082840312156103bc576103bb6101d6565b5b60006103ca84828501610391565b9150509291505056fea26469706673582212209b74562b1392b8afa9f8d9fe264ab852ce41e033f655dff08a965e0157d5ebd464736f6c63430008120033",
  "linkReferences": {},
  "deployedLinkReferences": {}
}